{"contracts/OktoProof.sol":{"OktoProof":{"abi":[{"anonymous":false,"inputs":[{"indexed":true,"internalType":"bytes32","name":"runId","type":"bytes32"},{"indexed":true,"internalType":"bytes32","name":"reportHash","type":"bytes32"},{"indexed":false,"internalType":"string","name":"tag","type":"string"},{"indexed":true,"internalType":"address","name":"sender","type":"address"}],"name":"Proof","type":"event"},{"inputs":[{"internalType":"bytes32","name":"runId","type":"bytes32"},{"internalType":"bytes32","name":"reportHash","type":"bytes32"},{"internalType":"string","name":"tag","type":"string"}],"name":"commit","outputs":[],"stateMutability":"nonpayable","type":"function"}],"evm":{"bytecode":{"linkReferences":{},"object":"608060405234801561001057600080fd5b50610275806100206000396000f3fe608060405234801561001057600080fd5b506004361061002b5760003560e01c8063617fcd6e14610030575b600080fd5b61004a60048036038101906100459190610149565b61004c565b005b3373ffffffffffffffffffffffffffffffffffffffff1683857fe20639c46eb4052278cf8c7f322cae080473ff0c4400dd7da75d07c1dd3e14f8858560405161009692919061021b565b60405180910390a450505050565b600080fd5b600080fd5b6000819050919050565b6100c1816100ae565b81146100cc57600080fd5b50565b6000813590506100de816100b8565b92915050565b600080fd5b600080fd5b600080fd5b60008083601f840112610109576101086100e4565b5b8235905067ffffffffffffffff811115610126576101256100e9565b5b602083019150836001820283011115610142576101416100ee565b5b9250929050565b60008060008060608587031215610163576101626100a4565b5b6000610171878288016100cf565b9450506020610182878288016100cf565b935050604085013567ffffffffffffffff8111156101a3576101a26100a9565b5b6101af878288016100f3565b925092505092959194509250565b600082825260208201905092915050565b82818337600083830152505050565b6000601f19601f8301169050919050565b60006101fa83856101bd565b93506102078385846101ce565b610210836101dd565b840190509392505050565b600060208201905081810360008301526102368184866101ee565b9050939250505056fea2646970667358221220a4bac29d941b3062c875ad1d6e511fdfdb610a325e2b98d07fa966dd028e26a664736f6c63430008140033","opcodes":"PUSH1 0x80 PUSH1 0x40 MSTORE CALLVALUE DUP1 ISZERO PUSH2 0x10 JUMPI PUSH1 0x0 DUP1 REVERT JUMPDEST POP PUSH2 0x275 DUP1 PUSH2 0x20 PUSH1 0x0 CODECOPY PUSH1 0x0 RETURN INVALID PUSH1 0x80 PUSH1 0x40 MSTORE CALLVALUE DUP1 ISZERO PUSH2 0x10 JUMPI PUSH1 0x0 DUP1 REVERT JUMPDEST POP PUSH1 0x4 CALLDATASIZE LT PUSH2 0x2B JUMPI PUSH1 0x0 CALLDATALOAD PUSH1 0xE0 SHR DUP1 PUSH4 0x617FCD6E EQ PUSH2 0x30 JUMPI JUMPDEST PUSH1 0x0 DUP1 REVERT JUMPDEST PUSH2 0x4A PUSH1 0x4 DUP1 CALLDATASIZE SUB DUP2 ADD SWAP1 PUSH2 0x45 SWAP2 SWAP1 PUSH2 0x149 JUMP JUMPDEST PUSH2 0x4C JUMP JUMPDEST STOP JUMPDEST CALLER PUSH20 0xFFFFFFFFFFFFFFFFFFFFFFFFFFFFFFFFFFFFFFFF AND DUP4 DUP6 PUSH32 0xE20639C46EB4052278CF8C7F322CAE080473FF0C4400DD7DA75D07C1DD3E14F8 DUP6 DUP6 PUSH1 0x40 MLOAD PUSH2 0x96 SWAP3 SWAP2 SWAP1 PUSH2 0x21B JUMP JUMPDEST PUSH1 0x40 MLOAD DUP1 SWAP2 SUB SWAP1 LOG4 POP POP POP POP JUMP JUMPDEST PUSH1 0x0 DUP1 REVERT JUMPDEST PUSH1 0x0 DUP1 REVERT JUMPDEST PUSH1 0x0 DUP2 SWAP1 POP SWAP2 SWAP1 POP JUMP JUMPDEST PUSH2 0xC1 DUP2 PUSH2 0xAE JUMP JUMPDEST DUP2 EQ PUSH2 0xCC JUMPI PUSH1 0x0 DUP1 REVERT JUMPDEST POP JUMP JUMPDEST PUSH1 0x0 DUP2 CALLDATALOAD SWAP1 POP PUSH2 0xDE DUP2 PUSH2 0xB8 JUMP JUMPDEST SWAP3 SWAP2 POP POP JUMP JUMPDEST PUSH1 0x0 DUP1 REVERT JUMPDEST PUSH1 0x0 DUP1 REVERT JUMPDEST PUSH1 0x0 DUP1 REVERT JUMPDEST PUSH1 0x0 DUP1 DUP4 PUSH1 0x1F DUP5 ADD SLT PUSH2 0x109 JUMPI PUSH2 0x108 PUSH2 0xE4 JUMP JUMPDEST JUMPDEST DUP3 CALLDATALOAD SWAP1 POP PUSH8 0xFFFFFFFFFFFFFFFF DUP2 GT ISZERO PUSH2 0x126 JUMPI PUSH2 0x125 PUSH2 0xE9 JUMP JUMPDEST JUMPDEST PUSH1 0x20 DUP4 ADD SWAP2 POP DUP4 PUSH1 0x1 DUP3 MUL DUP4 ADD GT ISZERO PUSH2 0x142 JUMPI PUSH2 0x141 PUSH2 0xEE JUMP JUMPDEST JUMPDEST SWAP3 POP SWAP3 SWAP1 POP JUMP JUMPDEST PUSH1 0x0 DUP1 PUSH1 0x0 DUP1 PUSH1 0x60 DUP6 DUP8 SUB SLT ISZERO PUSH2 0x163 JUMPI PUSH2 0x162 PUSH2 0xA4 JUMP JUMPDEST JUMPDEST PUSH1 0x0 PUSH2 0x171 DUP8 DUP3 DUP9 ADD PUSH2 0xCF JUMP JUMPDEST SWAP5 POP POP PUSH1 0x20 PUSH2 0x182 DUP8 DUP3 DUP9 ADD PUSH2 0xCF JUMP JUMPDEST SWAP4 POP POP PUSH1 0x40 DUP6 ADD CALLDATALOAD PUSH8 0xFFFFFFFFFFFFFFFF DUP2 GT ISZERO PUSH2 0x1A3 JUMPI PUSH2 0x1A2 PUSH2 0xA9 JUMP JUMPDEST JUMPDEST PUSH2 0x1AF DUP8 DUP3 DUP9 ADD PUSH2 0xF3 JUMP JUMPDEST SWAP3 POP SWAP3 POP POP SWAP3 SWAP6 SWAP2 SWAP5 POP SWAP3 POP JUMP JUMPDEST PUSH1 0x0 DUP3 DUP3 MSTORE PUSH1 0x20 DUP3 ADD SWAP1 POP SWAP3 SWAP2 POP POP JUMP JUMPDEST DUP3 DUP2 DUP4 CALLDATACOPY PUSH1 0x0 DUP4 DUP4 ADD MSTORE POP POP POP JUMP JUMPDEST PUSH1 0x0 PUSH1 0x1F NOT PUSH1 0x1F DUP4 ADD AND SWAP1 POP SWAP2 SWAP1 POP JUMP JUMPDEST PUSH1 0x0 PUSH2 0x1FA DUP4 DUP6 PUSH2 0x1BD JUMP JUMPDEST SWAP4 POP PUSH2 0x207 DUP4 DUP6 DUP5 PUSH2 0x1CE JUMP JUMPDEST PUSH2 0x210 DUP4 PUSH2 0x1DD JUMP JUMPDEST DUP5 ADD SWAP1 POP SWAP4 SWAP3 POP POP POP JUMP JUMPDEST PUSH1 0x0 PUSH1 0x20 DUP3 ADD SWAP1 POP DUP2 DUP2 SUB PUSH1 0x0 DUP4 ADD MSTORE PUSH2 0x236 DUP2 DUP5 DUP7 PUSH2 0x1EE JUMP JUMPDEST SWAP1 POP SWAP4 SWAP3 POP POP POP JUMP INVALID LOG2 PUSH5 0x6970667358 0x22 SLT KECCAK256 LOG4 0xBA 0xC2 SWAP14 SWAP5 SHL ADDRESS PUSH3 0xC875AD SAR PUSH15 0x511FDFDB610A325E2B98D07FA966DD MUL DUP15 0x26 0xA6 PUSH5 0x736F6C6343 STOP ADDMOD EQ STOP CALLER "},"methodIdentifiers":{"commit(bytes32,bytes32,string)":"617fcd6e"}}}}}