{
  "_format": "hh-sol-artifact-1",
  "contractName": "OktoProof",
  "sourceName": "contracts/OktoProof.sol",
  "abi": [
    {
      "anonymous": false,
      "inputs": [
        {
          "indexed": true,
          "internalType": "bytes32",
          "name": "runId",
          "type": "bytes32"
        },
        {
          "indexed": true,
          "internalType": "bytes32",
          "name": "reportHash",
          "type": "bytes32"
        },
        {
          "indexed": false,
          "internalType": "string",
          "name": "tag",
          "type": "string"
        },
        {
          "indexed": true,
          "internalType": "address",
          "name": "sender",
          "type": "address"
        }
      ],
      "name": "Proof",
      "type": "event"
    },
    {
      "inputs": [
        {
          "internalType": "bytes32",
          "name": "runId",
          "type": "bytes32"
        },
        {
          "internalType": "bytes32",
          "name": "reportHash",
          "type": "bytes32"
        },
        {
          "internalType": "string",
          "name": "tag",
          "type": "string"
        }
      ],
      "name": "commit",
      "outputs": [],
      "stateMutability": "nonpayable",
      "type": "function"
    }
  ],
  "bytecode": "0x608060405234801561001057600080fd5b50610275806100206000396000f3fe608060405234801561001057600080fd5b506004361061002b5760003560e01c8063617fcd6e14610030575b600080fd5b61004a60048036038101906100459190610149565b61004c565b005b3373ffffffffffffffffffffffffffffffffffffffff1683857fe20639c46eb4052278cf8c7f322cae080473ff0c4400dd7da75d07c1dd3e14f8858560405161009692919061021b565b60405180910390a450505050565b600080fd5b600080fd5b6000819050919050565b6100c1816100ae565b81146100cc57600080fd5b50565b6000813590506100de816100b8565b92915050565b600080fd5b600080fd5b600080fd5b60008083601f840112610109576101086100e4565b5b8235905067ffffffffffffffff811115610126576101256100e9565b5b602083019150836001820283011115610142576101416100ee565b5b9250929050565b60008060008060608587031215610163576101626100a4565b5b6000610171878288016100cf565b9450506020610182878288016100cf565b935050604085013567ffffffffffffffff8111156101a3576101a26100a9565b5b6101af878288016100f3565b925092505092959194509250565b600082825260208201905092915050565b82818337600083830152505050565b6000601f19601f8301169050919050565b60006101fa83856101bd565b93506102078385846101ce565b610210836101dd565b840190509392505050565b600060208201905081810360008301526102368184866101ee565b9050939250505056fea2646970667358221220a4bac29d941b3062c875ad1d6e511fdfdb610a325e2b98d07fa966dd028e26a664736f6c63430008140033",
  "linkReferences": {},
  "deployedLinkReferences": {}
}